S014000053656E736F724D6F64756C652E7372656330
S113000045C0000004C100003FC100008AC10000D7
S11300105AC0000058C0000056C0000054C0000080
S113002052C0000050C000004EC000004CC0000090
S11300304AC000005EC0000046C0000044C000008A
S113004042C0000040C000003EC000003CC00000B0
S11300503AC0000038C0000036C0000034C00000C0
S113006032C0000030C000002EC000002CC00000D0
S11300702AC0000028C0000026C0000024C00000E0
S113008022C0000020C000001EC0000011241FBEBA
S1130090CFEFD0E4DEBFCDBF11E0A0E0B1E0E6E0F9
S11300A0F8E000E00BBF02C007900D92A633B10741
S11300B0D9F721E0A6E3B1E001C01D92A435B2074F
S11300C0E1F739D19EC39CCFCF93DF93DC01E0EC01
S11300D0F0E026EC30E0908195FFFDCFAD018D91ED
S11300E0E9018883EA0188818111F5CFDF91CF91FD
S11300F008951F920F920FB60F9211242F933F93DE
S11301004F935F936F937F938F939F93AF932091BC
S11301104C0130914D0140914E0150914F0160913D
S11301205001709151018091520190915301A1E0CD
S113013017D320934C0130934D0140934E015093BB
S11301404F01609350017093510180935201909339
S11301505301AF919F918F917F916F915F914F91D7
S11301603F912F910F900FBE0F901F901895F89408
S113017020914C0130914D0140914E0150914F011D
S113018060915001709151018091520190915301FD
S11301907894089583E08BB982E38AB90895109224
S11301A0C50087E68093C40088E18093C1008EE097
S11301B08093C200089580E89EE390938900809321
S11301C088001092800089E08093810082E080930F
S11301D06F000895E9E6F0E0808183608083E89A07
S11301E00895E9E6F0E080818C608083E99A0895BF
S11301F0E9E6F0E0808180628083EA9A0895CADFAC
S1130200CEDFD9DFE7DFEDDFF3DF789408951F92C7
S11302100F920FB60F9211240BB60F922F933F93A8
S11302204F935F936F937F938F939F93AF93BF93FA
S1130230EF93FF939CDF20933C0130933D01409367
S11302403E0150933F0160934001709341018093BC
S113025042019093430181E08093390187E091E06A
S113026033DFFF91EF91BF91AF919F918F917F9178
S11302706F915F914F913F912F910F900BBE0F9013
S11302800FBE0F901F9018951F920F920FB60F92EA
S113029011240BB60F922F933F934F935F936F9359
S11302A07F938F939F93AF93BF93EF93FF9380912B
S11302B0360190913701019690933701809336016E
S11302C080913601909137010597C1F450DF209356
S11302D04401309345014093460150934701609394
S11302E048017093490180934A0190934B0181E046
S11302F080933A011092370110923601FF91EF91E9
S1130300BF91AF919F918F917F916F915F914F9129
S11303103F912F910F900BBE0F900FBE0F901F9027
S113032018951F920F920FB60F9211240F900FBEC3
S11303300F901F901895CF93DF93CDB7DEB7C454B9
S1130340D1090FB6F894DEBF0FBECDBF58DF8AE1E6
S113035091E0BADE19821A821B821C821D821E82DF
S11303601F82188619861A861B861C861D861E8681
S11303701F86188A198A1A8A1B8A1C8A1D8A1E8A51
S11303801F8A188E198E1A8E1B8E4E018CE1880ED0
S1130390911C0F2EFEE26F2E712CF02DE8DE2C87BF
S11303A03D874E875F87688B798B8A8B9B8BF8940C
S11303B080913B018A8378948A81F89480913A01F0
S11303C08B8378948B81882309F47EC02091440127
S11303D03091450140914601509147016091480197
S11303E07091490180914A0190914B01AC88BD887C
S11303F0CE88DF88E88CF98C0A8D1B8D209044010F
S1130400309045014090460150904701B091480119
S1130410A0914901F0914A01E0914B012C8A3D8A57
S11304204E8A5F8AB88FA98FFA8FEB8FA5D1E7D058
S11304309B01AC016FEF77EE8DEF97E44CD0B3D016
S1130440D4010D900020E9F7119727E0EEE2F1E0E6
S113045001900D922A95E1F720E432E44FE050E058
S11304605DD119012A016B017C012AE0AE01425CD5
S11304705F4FC201B10194D1BE01625C7F4FC401E0
S113048084D1F40101900020E9F7319771826082F0
S11304902AE0AE01495C5F4FC701B60181D1BE01BC
S11304A0695C7F4FC40171D1D4010D900020E9F73C
S11304B0119786E0E0E0F1E001900D928A95E1F772
S11304C0C40102DE10923A01F894809138018983C4
S11304D07894898163CF0CD0E7C0DFD040F0D6D0C8
S11304E030F021F45F3F19F0C8C0511111C1CBC0E5
S11304F0ECD098F39923C9F35523B1F3951B550B0D
S1130500BB27AA2762177307840738F09F5F5F4FE2
S1130510220F331F441FAA1FA9F333D00E2E3AF023
S1130520E0E830D091505040E695001CCAF729D03D
S1130530FE2F27D0660F771F881FBB1F261737078C
S11305404807AB07B0E809F0BB0B802DBF01FF27BC
S113055093585F4F2AF09E3F510568F08EC0D8C073
S11305605F3FECF3983EDCF3869577956795B795F6
S1130570F7959F5FC9F7880F911D9695879597F911
S11305800895E1E0660F771F881FBB1F621773078A
S11305908407BA0720F0621B730B840BBA0BEE1F9F
S11305A088F7E095089599D088F09F5790F0B92F77
S11305B09927B751A0F0D1F0660F771F881F991FB4
S11305C01AF0BA95C9F712C0B13081F0A0D0B1E0E9
S11305D008959DC0672F782F8827B85F39F0B93FF9
S11305E0CCF3869577956795B395D9F73EF49095B6
S11305F08095709561957F4F8F4F9F4F0895E89434
S1130600F92F96EBFF2381F0121613061406440B00
S11306109395F69587957795679557954040FF2371
S1130620B9F71BC099270895882351F49850D2F73D
S1130630872B762F652F542F432F322F20E0B1F3D1
S1130640121613061406440B88233AF09A95440FA5
S1130650551F661F771F881FCAF755234AF4440F96
S1130660551F11F460FF04C06F5F7F4F8F4F9F4F82
S1130670880F9695879597F9089597F99F6780E86D
S113068070E060E008959FEF80EC089500240A94E0
S11306901616170618060906089500240A94121659
S11306A01306140605060895092E0394000C11F48C
S11306B0882352F0BB0F40F4BF2B11F460FF04C039
S11306C06F5F7F4F8F4F9F4F089557FD9058440F92
S11306D0551F59F05F3F71F04795880F97FB991F9D
S11306E061F09F3F79F0879508951216130614065A
S11306F0551FF2CF4695F1DF08C0161617061806E7
S1130700991FF1CF86957105610508940895E894C1
S1130710BB2766277727CB0197F90895A1E21A2E04
S1130720AA1BBB1BFD010DC0AA1FBB1FEE1FFF1F91
S1130730A217B307E407F50720F0A21BB30BE40BE1
S1130740F50B661F771F881F991F1A9469F7609528
S11307507095809590959B01AC01BD01CF010895E2
S11307600024A7FD00942A0F301D401D501D601D5C
S1130770701D801D901D08952A193B094C095D09BF
S11307806E097F09800B910B0895FB01DC010D902C
S11307900020E9F7119701900D920020E1F70895E8
S11307A0BB27FA01A62F6217710581059105330B4A
S11307B030FB66F0AA27660F771F881F991FAA1FB0
S11307C0A21710F0A21B63953850A9F7A05DAA33B5
S11307D008F0A95DA19336F7B111B1931082CA0153
S11307E000C0DC01FC01672F71917723E1F7329798
S11307F004C07C916D9370836291AE17BF07C8F3F8
S10908000895F894FFCFF7
S1130806206D2F730A000052696768742048616C72
S11308166C73656E736F72210A00496E69742043A6
S11308266F6D706C6574656421203A290A005370F3
S10908366565643D00004D
S9030000FC
