:1000000045C0000058C0000056C0000054C00000A9
:1000100052C0000050C000004EC000004CC00000A4
:100020004AC0000048C0000046C0000044C00000B4
:1000300042C0000040C000003EC000003CC00000C4
:100040003AC0000038C0000036C0000034C00000D4
:1000500032C0000030C000002EC000002CC00000E4
:100060002AC0000028C0000026C0000024C00000F4
:1000700022C0000020C000001EC000001CC0000004
:100080001AC0000018C0000016C0000011241FBED6
:10009000CFEFD0E4DEBFCDBF11E0A0E0B1E0EEE1F4
:1000A000F1E000E00BBF02C007900D92A031B10754
:1000B000D9F727D032C0A4CF83E08BB982E38AB9C5
:1000C0001092C50087E68093C40088E18093C10048
:1000D0008EE08093C2000895CF93DF93DC01E0ECC3
:1000E000F0E026EC30E0908195FFFDCFAD018D91E1
:1000F000E9018883EA0188818111F5CFDF91CF91F1
:100100000895CF93DF9300D0CDB7DEB7D5DF1A8245
:0E011000198280E091E0E0DFFFCFF894FFCF8E
:10011E0048656C6C6F20576F726C6421203A290011
:00000001FF
